:020000040800F2
:1000000000000320010400084D0400084D0400080E
:100010004D0400084D0400084D04000800000000D5
:100020000000000000000000000000004D04000877
:100030004D040008000000004D0400084D040008B5
:100040004D0400084D0400084D0400084D0400084C
:100050004D0400084D0400084D0400084D0400083C
:100060004D0400084D0400084D0400084D0400082C
:100070004D0400084D0400084D0400084D0400081C
:100080004D0400084D0400084D0400084D0400080C
:100090004D0400084D0400084D0400084D040008FC
:1000A0004D0400084D0400084D0400084D040008EC
:1000B0004D0400084D0400084D0400084D040008DC
:1000C0004D0400084D0400084D0400084D040008CC
:1000D0004D0400084D0400084D0400084D040008BC
:1000E0004D0400084D0400084D0400084D040008AC
:1000F0004D0400084D0400084D0400084D0400089C
:100100004D0400084D0400084D0400084D0400088B
:100110004D0400084D0400084D0400084D0400087B
:100120004D0400084D0400084D0400084D0400086B
:100130004D0400084D0400084D0400084D0400085B
:100140004D0400084D0400084D0400084D0400084B
:100150004D0400084D0400084D0400084D0400083B
:100160004D0400084D0400084D0400084D0400082B
:100170004D0400084D0400084D0400080000000074
:100180004D0400084D0400084D0400084D0400080B
:100190004D0400084D0400084D0400084D040008FB
:0C01A0004D0400084D0400084D04000848
:1001AC000348044B834202D0034B03B118477047FA
:1001BC000400002004000020000000000548064B4D
:1001CC001B1AD90F01EBA301491002D0034B03B149
:1001DC0018477047040000200400002000000000B5
:1001EC0010B5064C237843B9FFF7DAFF044B13B173
:1001FC000448AFF300800123237010BD04000020DD
:10020C00000000009804000808B5054B1BB1054917
:10021C000548AFF30080BDE80840FFF7CFBF00BF33
:10022C00000000000800002098040008164B1A6B10
:10023C0042F004021A631A6B42F002021A63A3F52D
:10024C0040531A6822F040621A60DA6842F0006289
:10025C00DA60A3F580631A6842F001021A601A682A
:10026C0042F480421A601A6842F080521A601A688E
:10027C0042F480321A601A6842F480221A601A68BA
:10028C0042F480121A607047003802400F4A536CD7
:10029C0043F480435364A2F58032536943F0200346
:1002AC0053610B4B1A6842F400521A60DA6842F43C
:1002BC000052DA609A6842F400529A60054B202290
:1002CC0083F828234FF480725A607047003802403C
:1002DC00003C014000E100E04FF0E02343F67F6278
:1002EC005A6100229A6107221A61704708B5FFF71C
:1002FC009DFFFFF7CBFFFFF7EFFF3B4A936943F0FE
:10030C008F4343F48033936106E0374A936943F497
:10031C008F4343F001039361344B1B78DBB2012B09
:10032C00F3D0324B1B78DBB2022B1BD02F4B1B783C
:10033C00DBB2032BF0D12C4A936943F08F4343F487
:10034C00803393612A4B1B78DBB2012B3FD0022BFD
:10035C0043D0002BE0D1936943F4807343F0010345
:10036C009361D9E7204A936943F08F4343F4803378
:10037C0093611F4B1B78DBB2052BCDD8DFE803F064
:10038C0003090F151B21184A936943F0010393616C
:10039C00C2E7154A936943F080039361BCE7124AA4
:1003AC00936943F480439361B6E70F4A936943F42E
:1003BC0080739361B0E70C4A936943F400739361C3
:1003CC00AAE7094A936943F480639361A4E7064A58
:1003DC00936943F4207393619EE7034A936943F452
:1003EC008843936198E700BF00040240000000209E
:1003FC0020000020DFF830D00C480D490D4A0023B6
:10040C0002E0D458C4500433C4188C42F9D30A4ABD
:10041C000A4C002301E013600432A242FBD300F02B
:10042C0011F8FFF763FF7047000003200000002065
:10043C0004000020B8040008040000202400002060
:10044C00FEE7000070B50D4D0D4C641BA41000268A
:10045C00A64209D10B4D0C4C00F018F8641BA410EB
:10046C000026A64205D170BD55F8043B98470136CD
:10047C00EEE755F8043B98470136F2E7B004000864
:10048C00B0040008B0040008B4040008F8B500BFBC
:10049C00F8BC08BC9E467047F8B500BFF8BC08BC59
:0404AC009E467047B1
:0404B0001502000829
:0404B400ED0100084E
:0404B800010000003F
:0400000508000401EA
:00000001FF
