:020000040800F2
:1000000000000320F9030008450400084504000827
:1000100045040008450400084504000800000000ED
:10002000000000000000000000000000450400087F
:1000300045040008000000004504000845040008CD
:10004000450400084504000845040008450400086C
:10005000450400084504000845040008450400085C
:10006000450400084504000845040008450400084C
:10007000450400084504000845040008450400083C
:10008000450400084504000845040008450400082C
:10009000450400084504000845040008450400081C
:1000A000450400084504000845040008450400080C
:1000B00045040008450400084504000845040008FC
:1000C00045040008450400084504000845040008EC
:1000D00045040008450400084504000845040008DC
:1000E00045040008450400084504000845040008CC
:1000F00045040008450400084504000845040008BC
:1001000045040008450400084504000845040008AB
:10011000450400084504000845040008450400089B
:10012000450400084504000845040008450400088B
:10013000450400084504000845040008450400087B
:10014000450400084504000845040008450400086B
:10015000450400084504000845040008450400085B
:10016000450400084504000845040008450400084B
:10017000450400084504000845040008000000008C
:10018000450400084504000845040008450400082B
:10019000450400084504000845040008450400081B
:0C01A00045040008450400084504000860
:1001AC000348044B834202D0034B03B118477047FA
:1001BC000000002000000020000000000548064B55
:1001CC001B1AD90F01EBA301491002D0034B03B149
:1001DC0018477047000000200000002000000000BD
:1001EC0010B5064C237843B9FFF7DAFF044B13B173
:1001FC000448AFF300800123237010BD00000020E1
:10020C00000000009004000808B5054B1BB105491F
:10021C000548AFF30080BDE80840FFF7CFBF00BF33
:10022C0000000000040000209004000882B06C4A1A
:10023C00D2F8303843F00603C2F83038694BD3F8A3
:10024C00002442F00101C3F8001444F2010142EA17
:10025C000100C3F8000442F4821242F00102C3F818
:10026C000024D3F8082442F00100C3F80804114319
:10027C00C3F8081442F4821242F00102C3F80824B5
:10028C00012100208CE00023009302E0009B01334D
:10029C000093009A4CF24F339A42F7DD514BD3F84E
:1002AC00103813F4005F00F0828001304E4B83FB5A
:1002BC000023A3EBE07303EB4303C31AD8B2494A00
:1002CC00D2F8183423F4814323F00103C2F8183414
:1002DC00012908D0022914D0424BD3F8103813F45A
:1002EC00005FF9D163E030B1012802D04FF48042B5
:1002FC0002E0802200E0012213433A4AC2F818348B
:10030C00EAE728B943F08103364AC2F81834E3E728
:10031C00012807D043F4804343F00103314AC2F86B
:10032C001834D9E743F481432E4AC2F81834D3E782
:10033C00019B01330193019A4CF24F339A42F7DD42
:10034C00284BD3F8103813F0400F29D0012912D0C4
:10035C000121244AD2F8183423F4814323F00103F9
:10036C00C2F81834012908D050BB43F081031D4A50
:10037C00C2F818340EE00221EBE730B1012802D0AC
:10038C004FF4804202E0802200E001221343154A20
:10039C00C2F81834134BD3F8103813F0400FF9D1BE
:1003AC00104BD3F8103813F4005F7FF46CAF0D4B87
:1003BC00D3F8103813F0400FF2D000230193BAE7B2
:1003CC00012807D043F4804343F00103054AC2F8E7
:1003DC001834DFE743F48143024AC2F81834D9E7F2
:1003EC00003002400000024056555555DFF830D021
:1003FC000C480D490D4A002302E0D458C450043374
:10040C00C4188C42F9D30A4A0A4C002301E0136049
:10041C000432A242FBD300F011F8FFF707FF70473C
:10042C00000003200000002000000020B0040008A1
:10043C00000000201C000020FEE7000070B50D4DF0
:10044C000D4C641BA4100026A64209D10B4D0C4C7C
:10045C0000F018F8641BA4100026A64205D170BD4C
:10046C0055F8043B98470136EEE755F8043B98479E
:10047C000136F2E7A8040008A8040008A804000844
:10048C00AC040008F8B500BFF8BC08BC9E46704729
:0C049C00F8B500BFF8BC08BC9E467047D5
:0404A8001502000831
:0404AC00ED01000856
:04000005080003F9F3
:00000001FF
