:020000040800F2
:1000000000000320150400086104000861040008D2
:100010006104000861040008610400080000000099
:100020000000000000000000000000006104000863
:100030006104000800000000610400086104000879
:1000400061040008610400086104000861040008FC
:1000500061040008610400086104000861040008EC
:1000600061040008610400086104000861040008DC
:1000700061040008610400086104000861040008CC
:1000800061040008610400086104000861040008BC
:1000900061040008610400086104000861040008AC
:1000A000610400086104000861040008610400089C
:1000B000610400086104000861040008610400088C
:1000C000610400086104000861040008610400087C
:1000D000610400086104000861040008610400086C
:1000E000610400086104000861040008610400085C
:1000F000610400086104000861040008610400084C
:10010000610400086104000861040008610400083B
:10011000610400086104000861040008610400082B
:10012000610400086104000861040008610400081B
:10013000610400086104000861040008610400080B
:1001400061040008610400086104000861040008FB
:1001500061040008610400086104000861040008EB
:1001600061040008610400086104000861040008DB
:100170006104000861040008610400080000000038
:1001800061040008610400086104000861040008BB
:1001900061040008610400086104000861040008AB
:0C01A0006104000861040008610400080C
:1001AC000348044B834202D0034B03B118477047FA
:1001BC001000002010000020000000000548064B35
:1001CC001B1AD90F01EBA301491002D0034B03B149
:1001DC00184770471000002010000020000000009D
:1001EC0010B5064C237843B9FFF7DAFF044B13B173
:1001FC000448AFF300800123237010BD10000020D1
:10020C0000000000AC04000808B5054B1BB1054903
:10021C000548AFF30080BDE80840FFF7CFBF00BF33
:10022C000000000014000020AC04000882B0019013
:10023C00019B5A1E0192002BFAD102B070470000AC
:10024C00154B164A9A6103291BD000228A4220D2F0
:10025C0010B400EB020C124B83FB0C43A3EBEC73BE
:10026C0003EB4303ACEB0303DBB20E4C54F823401B
:10027C00094B9C610132D2B28A42EAD35DF8044B3D
:10028C007047094B1B782BB1034B44F281029A61E6
:10029C0070477047704700BF000402400000814067
:1002AC0056555555000000202E00002038B500F0A2
:1002BC0065F800F089F800252C4628E0264A1378CA
:1002CC00B3FA83F35B091370244B1878FFF7B8FF6C
:1002DC00012400E00024224B1B6913F0400F39D19C
:1002EC008DB920480178204BA3FB012303F0FE02BB
:1002FC0002EB5303C91A0131C9B20170174B1878BC
:10030C00FFF79EFF01254FF47A70FFF78FFF84F003
:10031C000103164A137085F00103154A1370154B2F
:10032C00D3F8103813F4005FD4D1002CD3D10D4B7B
:10033C0019780329C2D0094A137801330E4880FB7F
:10034C00034000EB4000181A1070C0B2FFF778FFA2
:10035C000124C0E70025D6E72E0000202F00002046
:10036C00000802400C000020ABAAAAAA2D00002015
:10037C002C00002000000240565555550F4AD2F86B
:10038C00303843F00603C2F830380D4BD3F8002454
:10039C0042F48042C3F80024D3F8082442F480428B
:1003AC00C3F80824D3F8182442F40002C3F8182424
:1003BC00044A136823F04063136070470030024016
:1003CC0000000240000802400E4B1A6842F08052B6
:1003DC001A605A6822F480425A609A6842F080523D
:1003EC009A609A6942F080429A611A6842F001025E
:1003FC001A609A6842F001029A609A6942F480325B
:10040C009A61704700040240DFF830D00C480D4967
:10041C000D4A002302E0D458C4500433C4188C4253
:10042C00F9D30A4A0A4C002301E013600432A242B9
:10043C00FBD300F011F8FFF739FF704700000320E1
:10044C000000002010000020CC0400081000002048
:10045C0030000020FEE7000070B50D4D0D4C641B04
:10046C00A4100026A64209D10B4D0C4C00F018F834
:10047C00641BA4100026A64205D170BD55F8043BA0
:10048C0098470136EEE755F8043B98470136F2E7FA
:10049C00C4040008C4040008C4040008C80400080C
:1004AC00F8B500BFF8BC08BC9E467047F8B500BF55
:0804BC00F8BC08BC9E46704725
:0404C4001502000815
:0404C800ED0100083A
:1004CC00004000008000000001000000010000005E
:0400000508000415D6
:00000001FF
