:020000040800F2
:1000000000000320310300087D0300087D03000881
:100010007D0300087D0300087D0300080000000048
:100020000000000000000000000000007D03000848
:100030007D030008000000007D0300087D03000828
:100040007D0300087D0300087D0300087D03000890
:100050007D0300087D0300087D0300087D03000880
:100060007D0300087D0300087D0300087D03000870
:100070007D0300087D0300087D0300087D03000860
:100080007D0300087D0300087D0300087D03000850
:100090007D0300087D0300087D0300087D03000840
:1000A0007D0300087D0300087D0300087D03000830
:1000B0007D0300087D0300087D0300087D03000820
:1000C0007D0300087D0300087D0300087D03000810
:1000D0007D0300087D0300087D0300087D03000800
:1000E0007D0300087D0300087D0300087D030008F0
:1000F0007D0300087D0300087D0300087D030008E0
:100100007D0300087D0300087D0300087D030008CF
:100110007D0300087D0300087D0300087D030008BF
:100120007D0300087D0300087D0300087D030008AF
:100130007D0300087D0300087D0300087D0300089F
:100140007D0300087D0300087D0300087D0300088F
:100150007D0300087D0300087D0300087D0300087F
:100160007D0300087D0300087D0300087D0300086F
:100170007D0300087D0300087D03000800000000E7
:100180007D0300087D0300087D0300087D0300084F
:100190007D0300087D0300087D0300087D0300083F
:0C01A0007D0300087D0300087D030008BB
:1001AC000348044B834202D0034B03B118477047FA
:1001BC000000002000000020000000000548064B55
:1001CC001B1AD90F01EBA301491002D0034B03B149
:1001DC0018477047000000200000002000000000BD
:1001EC0010B5064C237843B9FFF7DAFF044B13B173
:1001FC000448AFF300800123237010BD00000020E1
:10020C0000000000C803000808B5054B1BB10549E8
:10021C000548AFF30080BDE80840FFF7CFBF00BF33
:10022C000000000004000020C803000882B0019008
:10023C0000E000BF019B5A1E0192002BF9D102B0C5
:10024C007047000008B5334AD2F8303843F0020149
:10025C00C2F8301843F00603C2F830382E4BD3F8EE
:10026C00002442F08102C3F80024D3F8002822F4C1
:10027C000052C3F80028D3F80C2822F40052C3F81B
:10028C000C28D3F8182422F08102C3F818241AE0A1
:10029C00224B1B68012B2ED01F4AD2F8183423F0A6
:1002AC000101C2F8181423F08103C2F818341B4B57
:1002BC0000221A60184BD3F8103813F4005FF9D0F1
:1002CC001748FFF7B3FF144BD3F8103813F4005F43
:1002DC00F9D11348FFF7AAFF104B1B68002BD7D19D
:1002EC000D4AD2F8183443F00103C2F818340B4B02
:1002FC0001221A60DEE7084AD2F8183423F0010311
:10030C00C2F8183443F08003C2F81834034B0222AD
:10031C001A60CFE700300240000002401C000020B1
:10032C00A0860100DFF830D00C480D490D4A00239F
:10033C0002E0D458C4500433C4188C42F9D30A4A8E
:10034C000A4C002301E013600432A242FBD300F0FC
:10035C0011F8FFF777FF7047000003200000002022
:10036C0000000020E803000800000020200000200E
:10037C00FEE7000070B50D4D0D4C641BA41000265B
:10038C00A64209D10B4D0C4C00F018F8641BA410BC
:10039C000026A64205D170BD55F8043B984701369E
:1003AC00EEE755F8043B98470136F2E7E003000806
:1003BC00E0030008E0030008E4030008F8B500BF00
:1003CC00F8BC08BC9E467047F8B500BFF8BC08BC2A
:0403DC009E46704782
:0403E00015020008FA
:0403E400ED0100081F
:0400000508000331BB
:00000001FF
