:020000040800F2
:1000000000000320B50600080107000801070008EA
:1000100001070008010700080107000800000000B0
:1000200000000000000000000000000001070008C0
:10003000010700080000000001070008550500083E
:100040000107000801070008010700080107000870
:100050000107000801070008010700080107000860
:100060000107000801070008010700080107000850
:100070000107000801070008010700080107000840
:100080000107000801070008010700080107000830
:10009000010700080107000801070008C105000862
:1000A0000107000801070008010700080107000810
:1000B0000107000801070008010700080107000800
:1000C00001070008010700080107000801070008F0
:1000D00001070008010700080107000801070008E0
:1000E0007105000801070008010700080107000862
:1000F00001070008010700080107000801070008C0
:1001000001070008010700080107000801070008AF
:10011000010700080107000801070008010700089F
:10012000010700080107000801070008010700088F
:10013000010700080107000801070008010700087F
:10014000010700080107000801070008010700086F
:10015000010700080107000801070008010700085F
:10016000010700080107000801070008010700084F
:10017000010700080107000801070008000000004F
:10018000010700080107000801070008010700082F
:10019000010700080107000801070008010700081F
:0C01A00001070008010700080107000823
:1001AC000348044B834202D0034B03B118477047FA
:1001BC000800002008000020000000000548064B45
:1001CC001B1AD90F01EBA301491002D0034B03B149
:1001DC0018477047080000200800002000000000AD
:1001EC0010B5064C237843B9FFF7DAFF044B13B173
:1001FC000448AFF300800123237010BD08000020D9
:10020C00000000004C07000808B5054B1BB1054960
:10021C000548AFF30080BDE80840FFF7CFBF00BF33
:10022C00000000000C0000204C070008064B1A5C74
:10023C000123934019B19BB2044A936170471B048C
:10024C00024A9361704700BF640700080004024033
:10025C0070B500F0E7F8494B1868494BA3FB003028
:10026C00800900F067F900F0F1F800F017F90023AD
:10027C00444A1370444A1370444A136017E0002137
:10028C002046FFF7D3FF0134E4B2052CF7D93E4BDF
:10029C001B78DBB2012B2CD0022B33D03BB90121C4
:1002AC000220FFF7C3FF01210320FFF7BFFF384BEC
:1002BC001B78DBB2012B5ED1364B1A68334B1B68B3
:1002CC009A42F4D32F4B1A78334B53F82230314ADD
:1002DC00126813442D4A13602B490A7801322F4BB4
:1002EC0083FB020303EB4303D31ADBB20B70002432
:1002FC00CBE701210846FFF799FF01210420FFF706
:10030C0095FFD4E701210020FFF790FF0121052084
:10031C00FFF78CFFCBE700212046FFF787FF204B30
:10032C0000221A551B4B1B6803EB56031D4A42F85F
:10033C0025300134E4B2052CB9D825461A4B1B5D87
:10034C00DBB2012BF5D1194B1A5D194B53F8226016
:10035C00144B53F824200F4B1B689A42E9D8104BCE
:10036C001B5D002BD7D101212046FFF75FFF0C4B03
:10037C0001221A55D6E70024DDE700BF0400002057
:10038C00D34D62105D0000205C000020580000205E
:10039C0000000020640000207807000856555555D1
:1003AC0028000020300000205000002048000020D1
:1003BC006C07000838B504460D460A4B01221A5446
:1003CC00094B19540021094B1954FFF72FFF084B07
:1003DC0053F82520074B1B6803EB5203064A42F8DF
:1003EC00243038BD50000020480000202800002098
:1003FC006C070008640000203000002010B50024B9
:10040C0009E00021054B1955054B19552046FFF7FE
:10041C000DFF0134E4B2052CF3D910BD50000020BF
:10042C0028000020064A136843F001031360044BB4
:10043C001B6813F0020FFAD0024B034A1A60704784
:10044C0000380240040000200024F4000F4B1A6B0B
:10045C0042F002021A631A6B42F004021A63A3F50B
:10046C00505319680A4A0A401A601968094A0A4323
:10047C001A60094A9A61A2F54402A2F578421368FF
:10048C0023F0406323F4704313607047003802403C
:10049C00C00FFFCF155000100000C740224A536C0C
:1004AC0043F480435364A2F58032536923F0F00384
:1004BC005361536943F0200353611C4B196841F499
:1004CC0000511960996841F40051996018494FF432
:1004DC00807048604FF0200C81F828C3106920F020
:1004EC000F001061106940F002001061186840F4B0
:1004FC0080701860986840F480709860106920F0E3
:10050C00F0001061106940EA0C0010611A6842F4A6
:10051C0000721A609A6842F400729A604FF40003F9
:10052C000B6081F817C3704700380240003C014053
:10053C0000E100E001384FF0E023586100229A619D
:10054C0007221A6170470000044A136801331360D4
:10055C00034A136801331360704700BF6400002026
:10056C006000002008B5104B5B6913F4005F13D0DA
:10057C000D4A536943F4005353610C4B1B68322BE7
:10058C000AD90B4B1B78DBB2012B06D0084B01228E
:10059C001A70064B00221A6008BD054B02221A7015
:1005AC00FFF72CFFF5E700BF003C01406000002086
:1005BC000000002008B5354B5B6913F4807F36D002
:1005CC00324A536943F480735361314B1B68322BAD
:1005DC002DD9304B1B78DBB2012B19D02E4B1B784D
:1005EC00DBB22E4AD35CFBB12B480278D2B22C4939
:1005FC008B5C0133DBB28B540378DBB2CB5CDBB2AC
:10060C00022B11D90378DBB20A460021D1540BE03E
:10061C00244A13780133DBB213701378DBB2022B4C
:10062C0002D9134600221A70194B00221A60174B7C
:10063C005B6913F4007F22D0144A536943F40073AE
:10064C005361134B1B68322B19D9124B1B78DBB23D
:10065C00012B11D0104A13780133DBB213701378CD
:10066C00DBB2052B02D9134600221A700A4B1B78F9
:10067C00DBB20A4AD35C1BB1054B00221A6008BDE1
:10068C00054B18780021FFF795FEF5E7003C01407B
:10069C0060000020000000202400002050000020FA
:1006AC00480000205D000020DFF830D00C480D49D8
:1006BC000D4A002302E0D458C4500433C4188C42B1
:1006CC00F9D30A4A0A4C002301E013600432A24217
:1006DC00FBD300F011F8FFF7BBFD704700000320BF
:1006EC0000000020080000208C07000808000020F3
:1006FC0068000020FEE7000070B50D4D0D4C641B2A
:10070C00A4100026A64209D10B4D0C4C00F018F891
:10071C00641BA4100026A64205D170BD55F8043BFD
:10072C0098470136EEE755F8043B98470136F2E757
:10073C00840700088407000884070008880700085D
:10074C00F8B500BFF8BC08BC9E467047F8B500BFB2
:08075C00F8BC08BC9E46704782
:1007640000010206070E0000050D0000E20400006F
:10077400CA020000D00700004C020000C7010000BC
:040784001502000852
:04078800ED01000877
:08078C00010000000024F4004C
:04000005080006B534
:00000001FF
