:020000040800F2
:1000000000000320410600088D0600088D06000848
:100010008D0600088D0600088D060008000000000F
:100020000000000000000000000000008D06000835
:100030008D060008000000008D060008F505000888
:100040008D0600088D0600088D0600088D06000844
:100050008D0600088D0600088D0600088D06000834
:100060008D0600088D0600088D0600088D06000824
:100070008D0600088D0600088D0600088D06000814
:100080008D0600088D0600088D0600088D06000804
:100090008D0600088D0600088D0600088D060008F4
:1000A0008D0600088D0600088D0600088D060008E4
:1000B0008D0600088D0600088D0600088D060008D4
:1000C0008D0600088D0600088D0600088D060008C4
:1000D0008D0600088D0600088D0600088D060008B4
:1000E000110600088D0600088D0600088D06000820
:1000F0008D0600088D0600088D0600088D06000894
:100100008D0600088D0600088D0600088D06000883
:100110008D0600088D0600088D0600088D06000873
:100120008D0600088D0600088D0600088D06000863
:100130008D0600088D0600088D0600088D06000853
:100140008D0600088D0600088D0600088D06000843
:100150008D0600088D0600088D0600088D06000833
:100160008D0600088D0600088D0600088D06000823
:100170008D0600088D0600088D06000800000000AE
:100180008D0600088D0600088D0600088D06000803
:100190008D0600088D0600088D0600088D060008F3
:0C01A0008D0600088D0600088D06000882
:1001AC0010B5054C237833B9044B13B10448AFF3A5
:1001BC0000800123237010BD00000020000000000F
:1001CC00D806000808B5034B1BB103490348AFF32D
:1001DC00008008BD0000000004000020D8060008C4
:1001EC0008B500F06BF900F0E3F800F09BF900F0B3
:1001FC00DBF929E055490A6801320A6032E0002334
:10020C00534A1370534A1370504A1360504B1B7867
:10021C00012B0BD04F4A13704F4B1B68013B052B26
:10022C0078D8DFE803F00C353B414962494A127833
:10023C00002AEFD148490A6801320A60EAE7474AC6
:10024C00936943F400539361454B1B6903F40053CA
:10025C00444A136013B13E4A012111703C4A127892
:10026C00012AC7D0394A11683F4A9142CEDD002B92
:10027C00C5D0384B1B78002BC8D1374A13680133D3
:10028C001360344B01221A70304B00221A60BDE708
:10029C00324A936943F400439361D5E72F4A93693B
:1002AC0043F480539361CFE7304AD2F8183443F0CB
:1002BC004003C2F81834C7E7284B9A6942F0005241
:1002CC009A619A6942F000429A619A6942F08052AE
:1002DC009A619A6942F480029A61244AD2F81834DD
:1002EC0043F40003C2F81834AEE71C4B9A6942F48D
:1002FC0000529A619A6942F400429A619A6942F4F6
:10030C0080529A61194AD2F8183443F04003C2F86B
:10031C00183499E7104B00221A60104B9A6942F07E
:10032C0000529A619A6942F000429A619A6942F0CD
:10033C0080529A619A6942F480029A610B4AD2F80F
:10034C00183443F40003C2F818347DE72000002071
:10035C002B0000202A000020240000200004024072
:10036C00000802401C0000209F8601000000024093
:10037C0000B500F00700C0F1070CBCF1040F28BF5A
:10038C004FF0040C031D062B0FD9C31E4FF0FF3E7C
:10039C000EFA0CF021EA000199400EFA03FE22EA53
:1003AC000E0241EA02005DF804FB0023EEE70000B8
:1003BC00404A136823F0F80343F0800313600023D2
:1003CC0093603C4B9B6813F00C0FFAD1394A1368BD
:1003DC0023F080731360374B1B6813F0007FFAD146
:1003EC00344A136823F410231360324B1B6813F444
:1003FC00003FFAD12F4B1A6822F480221A601A6837
:10040C0042F480321A602B4B1B6813F4003FFAD075
:10041C00284B1A6822F480221A601A6842F40022CF
:10042C001A605A6842F480325A605A6842F4800268
:10043C005A605A6822F03F0242F004025A605A682D
:10044C006FF38E1242F434525A605A6822F44032DE
:10045C005A601A6842F080721A60164B1B6813F0CF
:10046C00007FFAD1134B9A6822F0030242F0020289
:10047C009A609A6822F0F0029A609A6822F4E0522C
:10048C0042F4A0529A609A6822F4604242F400420C
:10049C009A609A6842F060529A609A6822F04042E0
:1004AC009A60054A136823F00F0343F005031360A9
:1004BC00704700BF00380240003C024008B5154AA6
:1004CC00536C43F480435364A2F58032536923F098
:1004DC00F00343F0200353610F4B1A6842F40052AF
:1004EC001A609A6842F400529A60DA6842F4005238
:1004FC00DA600A4BD86800221146C0F30220FFF7DD
:10050C0037FF0001C0B2064B83F828034FF480720A
:10051C005A6008BD00380240003C014000ED00E08C
:10052C0000E100E01E4A136B43F00E0313631D4BF6
:10053C00D3F8001441F48051C3F80014D3F8082404
:10054C0042F48062C3F8082441F08061C3F80014BF
:10055C0042F08072C3F8082403F580631A6842F0F5
:10056C0080721A605A6822F480525A609A6842F07B
:10057C0080729A60DA6822F08072DA601A6842F04F
:10058C0080421A605A6822F400425A609A6842F01B
:10059C0080429A60DA6822F08042DA60704700BFCD
:1005AC0000380240000002404FF0E0231A6922F0AC
:1005BC0001021A611A6942F002021A611A6942F0C8
:1005CC0004021A615A6902F07F4206490A435A61D1
:1005DC009A6902F07F420A439A611A6942F0010259
:1005EC001A6170471FBF0200044A1388013313803D
:1005FC00034A138801331380704700BF2E0000207C
:10060C0028000020084A536943F400535361074BF8
:10061C001B88632B06D9064A137801331370034BDE
:10062C0000221A80704700BF003C01402E000020C1
:10063C002C000020DFF830D00C480D490D4A002367
:10064C0002E0D458C4500433C4188C42F9D30A4A7B
:10065C000A4C002301E013600432A242FBD300F0E9
:10066C0011F8FFF7BDFD70470000032000000020CB
:10067C0000000020F80600080000002030000020D8
:10068C00FEE7000070B50D4D0D4C641BA410002648
:10069C00A64209D10B4D0C4C00F018F8641BA410A9
:1006AC000026A64205D170BD55F8043B984701368B
:1006BC00EEE755F8043B98470136F2E7F0060008E0
:1006CC00F0060008F0060008F4060008F8B500BFB4
:1006DC00F8BC08BC9E467047F8B500BFF8BC08BC17
:0406EC009E4670476F
:0406F000D10100082C
:0406F400AD0100084C
:0400000508000641A8
:00000001FF
