:020000040800F2
:100000000000032099040008E5040008E504000846
:10001000E5040008E5040008E5040008000000000D
:10002000000000000000000000000000E5040008DF
:10003000E504000800000000E5040008E5040008ED
:10004000E5040008E5040008E5040008E5040008EC
:10005000E5040008E5040008E5040008E5040008DC
:10006000E5040008E5040008E5040008E5040008CC
:10007000E5040008E5040008E5040008E5040008BC
:10008000E5040008E5040008E5040008E5040008AC
:10009000E5040008E5040008E5040008E50400089C
:1000A000E5040008E5040008E5040008E50400088C
:1000B000E5040008E5040008E5040008E50400087C
:1000C000E5040008E5040008E5040008E50400086C
:1000D000E5040008E5040008E5040008E50400085C
:1000E000E5040008E5040008E5040008E50400084C
:1000F000E5040008E5040008E5040008E50400083C
:10010000E5040008E5040008E5040008E50400082B
:10011000E5040008E5040008E5040008E50400081B
:10012000E5040008E5040008E5040008E50400080B
:10013000E5040008E5040008E5040008E5040008FB
:10014000E5040008E5040008E5040008E5040008EB
:10015000E5040008E5040008E5040008E5040008DB
:10016000E5040008E5040008E5040008E5040008CB
:10017000E5040008E5040008E504000800000000AC
:10018000E5040008E5040008E5040008E5040008AB
:10019000E5040008E5040008E5040008E50400089B
:0C01A000E5040008E5040008E504000880
:1001AC0010B5054C237833B9044B13B10448AFF3A5
:1001BC0000800123237010BD00000020000000000F
:1001CC003005000808B5034B1BB103490348AFF3D6
:1001DC00008008BD0000000004000020300500086D
:1001EC0008B500F0FBF800F025F939E0724B1B78EC
:1001FC00012B11D0714B1A78714BA3FB02139B0886
:10020C0003EB43035900531ADBB2052B28D8DFE864
:10021C0003F007577695B439674B00221A70E9E75B
:10022C00684AD2F8183443F48041C2F8181441F0EB
:10023C000103C2F81834644B9A6942F080029A6147
:10024C009A6942F480729A610123604A1370604A81
:10025C001370604A1370604A1370584B00221A7066
:10026C00584BD3F8103813F0010FBFD0524B1B78FA
:10027C00002BBFD1504B01221A70504A1378013316
:10028C001370B7E74F4AD2F8183443F08043C2F8E2
:10029C00183443F48033C2F818344B4B9A6942F447
:1002AC0000029A619A6942F080729A610023474A6F
:1002BC001370474A1370474A1370474A1370CFE7BD
:1002CC00404AD2F8183443F48041C2F8181443F46D
:1002DC00A033C2F818343C4B9A6942F400029A617C
:1002EC009A6942F080729A61384B01221A7000238D
:1002FC00374A1370374A1370374A1370B0E7314AD4
:10030C00D2F8183443F08043C2F8183443F0010398
:10031C00C2F818342C4B9A6942F400029A619A691B
:10032C0042F080729A610023284A1370284A0121F6
:10033C001170284A1370284A137091E7214AD2F899
:10034C00183443F08043C2F8183443F48033C2F8B5
:10035C0018341D4B9A6942F080029A619A6942F0F6
:10036C0080729A610023194A1370194A1370194A42
:10037C0001211170184A137072E7124AD2F818341E
:10038C0043F08043C2F8183443F48033C2F8183475
:10039C000D4B9A6942F400029A619A6942F4807298
:1003AC009A610023094A1370094A1370094A1370A1
:1003BC00094B01221A7053E7200000202100002075
:1003CC00ABAAAAAA00000240000402401F000020B1
:1003DC001E0000201D0000201C000020134AD2F833
:1003EC00303843F00603C2F83038114BD3F8000410
:1003FC0040F08050C3F80004D3F8081441F0805149
:10040C00C3F80814D3F8182442F08042C3F8182417
:10041C0040F00100C3F8000441F00101C3F80814D6
:10042C0042F48032C3F81824704700BF00300240F9
:10043C0000000240144B1A6842F480421A605A6859
:10044C0022F080025A609A6842F480429A60DA681C
:10045C0022F48042DA609A6942F400029A611A68C6
:10046C0042F480321A605A6822F480725A609A6898
:10047C0042F480329A60DA6822F48032DA609A6947
:10048C0042F080729A61704700040240DFF830D06D
:10049C000C480D490D4A002302E0D458C4500433D3
:1004AC00C4188C42F9D30A4A0A4C002301E01360A9
:1004BC000432A242FBD300F011F8FFF791FE704713
:1004CC000000032000000020000000205005000860
:1004DC000000002024000020FEE7000070B50D4D48
:1004EC000D4C641BA4100026A64209D10B4D0C4CDC
:1004FC0000F018F8641BA4100026A64205D170BDAC
:10050C0055F8043B98470136EEE755F8043B9847FD
:10051C000136F2E7480500084805000848050008C0
:10052C004C050008F8B500BFF8BC08BC9E467047E7
:0C053C00F8B500BFF8BC08BC9E46704734
:04054800D1010008D5
:04054C00AD010008F5
:040000050800049952
:00000001FF
