:020000040800F2
:100000000000032045090008910900089109000833
:1000100091090008910900089109000800000000FA
:10002000000000000000000000000000910900082E
:10003000910900080000000091090008E508000887
:100040009109000891090008910900089109000828
:100050009109000891090008910900089109000818
:100060009109000891090008910900089109000808
:1000700091090008910900089109000891090008F8
:1000800091090008910900089109000891090008E8
:10009000910900089109000891090008AD070008BE
:1000A00091090008910900089109000891090008C8
:1000B00091090008910900089109000891090008B8
:1000C00091090008910900089109000891090008A8
:1000D0009109000891090008910900089109000898
:1000E00045080008910900089109000891090008D5
:1000F0009109000891090008910900089109000878
:100100009109000891090008910900089109000867
:100110009109000891090008910900089109000857
:100120009109000891090008910900089109000847
:100130009109000891090008910900089109000837
:100140009109000891090008910900089109000827
:100150009109000891090008910900089109000817
:100160009109000891090008910900089109000807
:100170009109000891090008910900080000000099
:1001800091090008910900089109000891090008E7
:1001900091090008910900089109000891090008D7
:0C01A0009109000891090008910900086D
:1001AC0010B5054C237833B9044B13B10448AFF3A5
:1001BC0000800123237010BD2000002000000000EF
:1001CC00DC09000808B5034B1BB103490348AFF326
:1001DC00008008BD0000000024000020DC0900089D
:1001EC0000239C46194606E01048805C01228240A0
:1001FC0011440133DBB2052B0FD81A460C48C05CF6
:10020C000128F1D10A48184480790128ECD107481B
:10021C00C05C012282409444EBE7064A536923EA0E
:10022C00010343EA0C035361704700BFF409000853
:10023C000000002000040240002313E00B4911F8D9
:10024C00132001EB4301497802EB42020A440849AE
:10025C0031F81220074921F81320074921F81320FF
:10026C000133DBB2052BE9D9704700BF58000020E1
:10027C000C0000204C0000204000002008B500F0CD
:10028C0015F900F089F900F00BFA00F069FAFFF7A4
:10029C00D3FF65E0624A1A449171614A90796149D1
:1002AC000870D179604A11700133DBB2052B15D877
:1002BC005E4A32F813105E4A32F813209142F3D39F
:1002CC005A4A002122F81310554A1A449279012AED
:1002DC00E0D0534A1A4401219171DEE7554B1B784B
:1002EC00554AA2FB0312991A02EB51029208C2EB77
:1002FC00C2029B1ADBB2514A13703BB9052B0ED8C4
:10030C00474A0021D1540133DBB2F7E70022934274
:10031C0008D94349012088540244D2B2F7E7454B2F
:10032C0000221A70464B1B78012B1BD0454B1B78B7
:10033C00012B3ED0444B1B78012B63D0434B1B78D5
:10034C00012B0BD1424B1B6913F4806F06D1414B2F
:10035C001B68312B02D93D4B00221A70FFF740FF6E
:10036C000023A3E73C4B1B783C4A12F81320022ACB
:10037C0003D93A4A002102F81310384A02EB430120
:10038C00497812F813C0364AA2FB0302920802EB1A
:10039C00420250001B1ADBB201EB41016144314AAD
:1003AC0032F81110224A22F81310254B00221A7031
:1003BC00BCE7294B1B78294A02EB43025278022AEC
:1003CC0004D9264A02EB430200215170234A02EB66
:1003DC004301497812F813C0214AA2FB0302920888
:1003EC0002EB420250001B1ADBB201EB41016144EB
:1003FC001C4A32F811100E4A22F81310114B00222D
:10040C001A7097E7124B1B6913F0400F96D1164BDD
:10041C001B68312B92D90C4B00221A708EE700BF4F
:10042C00000000203D0000203C0000204000002087
:10043C004C0000201E00002025499224680000205A
:10044C00650000206400002067000020660000208A
:10045C00000802406C0000206900002058000020B9
:10046C00ABAAAAAA0C0000207000002000B500F076
:10047C000700C0F1070CBCF1040F28BF4FF0040CAF
:10048C00031D062B0FD9C31E4FF0FF3E0EFA0CF0C6
:10049C0021EA000199400EFA03FE22EA0E0241EA1B
:1004AC0002005DF804FB0023EEE70000384A136BF2
:1004BC0043F006031363374B1A6842F001021A60CB
:1004CC001A6842F480421A601A6842F080521A602C
:1004DC001A6842F480321A601A6842F480221A6058
:1004EC001A6842F480121A605A6822F001025A60AB
:1004FC005A6822F080025A605A6822F480425A608C
:10050C005A6822F480725A605A6822F400725A6057
:10051C005A6822F480625A609A6842F001029A602A
:10052C009A6842F480429A609A6842F080529A60CB
:10053C009A6842F480329A609A6842F480229A60F7
:10054C009A6842F480129A60DA6822F00102DA604A
:10055C00DA6822F48042DA60DA6822F08052DA60DB
:10056C00DA6822F48032DA60DA6822F48022DA6007
:10057C00DA6822F48012DA6003F58063DA6842F4F8
:10058C000052DA60DA6842F40012DA60704700BF99
:10059C0000380240000402403F4A136823F0F8037D
:1005AC0043F080031360002393603B4B9B6813F074
:1005BC000C0FFAD1384A136823F080731360364B52
:1005CC001B6813F0007FFAD1334A136823F410230D
:1005DC001360314B1B6813F4003FFAD12E4B1A6891
:1005EC0022F480221A601A6842F480321A602A4B74
:1005FC001B6813F4003FFAD0274B1A6822F48022B0
:10060C001A601A6842F400221A6000225A605A6872
:10061C0042F480025A605A6822F03F0242F004020F
:10062C005A605A686FF38E1242F434525A605A6808
:10063C0022F440325A601A6842F080721A60164BEB
:10064C001B6813F0007FFAD1134B9A6822F0030257
:10065C0042F002029A609A6822F0F0029A609A685C
:10066C0022F4E05242F4A0529A609A6822F460425A
:10067C0042F400429A609A6842F060529A609A681A
:10068C0022F040429A60054A136823F00F0343F0AE
:10069C0005031360704700BF00380240003C024065
:1006AC00F8B52A4A536C43F480435364284EF368DC
:1006BC0023F4E0631B041B0C43F0BF6343F40033CF
:1006CC00F360244F3B6923F4706343F400733B6184
:1006DC00214C236843F480632360A36843F4806354
:1006EC00A360E36843F48063E360F06800220221B6
:1006FC00C0F30220FFF7BAFE0001C0B2174D85F817
:10070C0028034FF480736B60FB6823F4706343F42D
:10071C000073FB60236843F040032360A36843F03D
:10072C004003A360E36843F04003E360F0680022F9
:10073C000221C0F30220FFF799FE0001C0B285F838
:10074C0017034FF400032B60F8BD00BF00380240C4
:10075C0000ED00E000380140003C014000E100E009
:10076C004FF0E0231A6922F001021A611A6942F073
:10077C0002021A611A6942F004021A615A6902F003
:10078C007F4206490A435A619A6902F07F420A4342
:10079C009A611A6942F001021A6170471FBF020088
:1007AC001D4B1B6913F0400F09D01C4B1B7863B910
:1007BC001A4B01221A701A4B00221A6005E0174BD3
:1007CC001B78012B07D0012B19D0164A536943F023
:1007DC00400353617047124A1268B2F5FA6FF2D3B4
:1007EC00114B01221A70114B1978114A12F8113061
:1007FC00013302F81130094B00221A70E5E7084B5F
:10080C001B681D2BE1D9054B00221A70094A13787D
:10081C0001331370D9E700BF0008024067000020C5
:10082C0070000020003C01406500002069000020A1
:10083C00580000201E000020204B1B6913F4806F11
:10084C0009D01F4B1B7863B91D4B01221A701D4B2D
:10085C0000221A6005E01A4B1B78012B07D0012BE4
:10086C0019D0194A536943F4806353617047154A90
:10087C001268B2F5FA6FF2D3144B01221A70144BB2
:10088C001A78144B03EB42035A7801325A700C4B12
:10089C0000221A70E5E70B4B1B681D2BE1D9084BA6
:1008AC0000221A700A4A13780133DBB21370052B3D
:1008BC00D7D9134600221A70D3E700BF00080240B4
:1008CC00660000206C000020003C01406400002009
:1008DC006900002058000020114A1388013313804E
:1008EC00104B1B78012B05D00F4B1B78012B06D01E
:1008FC00002311E00D4A136801331360F4E70C4A2E
:10090C00136801331360F3E70A4931F813200132FD
:10091C0021F813200133DBB2052BF5D9704700BF4A
:10092C00740000206700002066000020700000208A
:10093C006C00002040000020DFF830D00C480D493E
:10094C000D4A002302E0D458C4500433C4188C421E
:10095C00F9D30A4A0A4C002301E013600432A24284
:10096C00FBD300F011F8FFF789FC7047000003205F
:10097C000000002020000020040A000820000020B5
:10098C0078000020FEE7000070B50D4D0D4C641B87
:10099C00A4100026A64209D10B4D0C4C00F018F8FF
:1009AC00641BA4100026A64205D170BD55F8043B6B
:1009BC0098470136EEE755F8043B98470136F2E7C5
:1009CC00FC090008FC090008FC090008000A0008E2
:1009DC00F8B500BFF8BC08BC9E467047F8B500BF20
:0809EC00F8BC08BC9E467047F0
:0809F40000070E08090A0000CB
:0409FC00D10100081D
:040A0000AD0100083C
:100A0400010101010101000000000000E204800175
:100A1400FA0041033801E30071020701C80006002F
:0400000508000945A1
:00000001FF
