:020000040800F2
:1000000000000320D5020008210300082103000896
:10001000210300082103000821030008000000005C
:1000200000000000000000000000000021030008A4
:10003000210300080000000021030008210300083C
:100040002103000821030008210300082103000800
:1000500021030008210300082103000821030008F0
:1000600021030008210300082103000821030008E0
:1000700021030008210300082103000821030008D0
:1000800021030008210300082103000821030008C0
:1000900021030008210300082103000821030008B0
:1000A00021030008210300082103000821030008A0
:1000B0002103000821030008210300082103000890
:1000C0002103000821030008210300082103000880
:1000D0002103000821030008210300082103000870
:1000E0002103000821030008210300082103000860
:1000F0002103000821030008210300082103000850
:10010000210300082103000821030008210300083F
:10011000210300082103000821030008210300082F
:10012000210300082103000821030008210300081F
:10013000210300082103000821030008210300080F
:1001400021030008210300082103000821030008FF
:1001500021030008210300082103000821030008EF
:1001600021030008210300082103000821030008DF
:1001700021030008210300082103000800000000FB
:1001800021030008210300082103000821030008BF
:1001900021030008210300082103000821030008AF
:0C01A000210300082103000821030008CF
:1001AC0010B5054C237833B9044B13B10448AFF3A5
:1001BC0000800123237010BD00000020000000000F
:1001CC006C03000808B5034B1BB103490348AFF39C
:1001DC00008008BD00000000040000206C03000833
:1001EC000D4AD2F8303843F00603C2F830380B4BC6
:1001FC00D3F800240A490A43C3F80024D3F8042492
:10020C00C3F80424D3F808240A43C3F80824D3F809
:10021C000C24C3F80C24704700300240000002404C
:10022C000140001001E000BF1846431E0028FAD11F
:10023C007047000070B5FFF7D3FF00242546264613
:10024C0000E000241E4BD3F8103813F4005F26D1C5
:10025C0035BB44F62060FFF7E5FF032E2ED8DFE810
:10026C0006F002080F170126154BC3F81864354623
:10027C0016E0134B8022C3F81824354602260FE0F3
:10028C000F4B4FF48042C3F818240125032607E0D6
:10029C000B4B0C4AC3F818242E46012500E0002510
:1002AC00074BD3F8103813F4805FCAD1002CC9D196
:1002BC0044F62060FFF7B6FF0124C3E70125EFE702
:1002CC000000024000008140DFF830D00C480D499E
:1002DC000D4A002302E0D458C4500433C4188C4295
:1002EC00F9D30A4A0A4C002301E013600432A242FB
:1002FC00FBD300F011F8FFF79DFF704700000320BF
:10030C0000000020000000208C03000800000020EA
:10031C001C000020FEE7000070B50D4D0D4C641B59
:10032C00A4100026A64209D10B4D0C4C00F018F875
:10033C00641BA4100026A64205D170BD55F8043BE1
:10034C0098470136EEE755F8043B98470136F2E73B
:10035C008403000884030008840300088803000851
:10036C00F8B500BFF8BC08BC9E467047F8B500BF96
:08037C00F8BC08BC9E46704766
:04038400D10100089B
:04038800AD010008BB
:04000005080002D518
:00000001FF
