:020000040800F2
:100000000000032081020008CD020008CD02000894
:10001000CD020008CD020008CD020008000000005B
:10002000000000000000000000000000CD020008F9
:10003000CD02000800000000CD020008CD0200083B
:10004000CD020008CD020008CD020008CD02000854
:10005000CD020008CD020008CD020008CD02000844
:10006000CD020008CD020008CD020008CD02000834
:10007000CD020008CD020008CD020008CD02000824
:10008000CD020008CD020008CD020008CD02000814
:10009000CD020008CD020008CD020008CD02000804
:1000A000CD020008CD020008CD020008CD020008F4
:1000B000CD020008CD020008CD020008CD020008E4
:1000C000CD020008CD020008CD020008CD020008D4
:1000D000CD020008CD020008CD020008CD020008C4
:1000E000CD020008CD020008CD020008CD020008B4
:1000F000CD020008CD020008CD020008CD020008A4
:10010000CD020008CD020008CD020008CD02000893
:10011000CD020008CD020008CD020008CD02000883
:10012000CD020008CD020008CD020008CD02000873
:10013000CD020008CD020008CD020008CD02000863
:10014000CD020008CD020008CD020008CD02000853
:10015000CD020008CD020008CD020008CD02000843
:10016000CD020008CD020008CD020008CD02000833
:10017000CD020008CD020008CD02000800000000FA
:10018000CD020008CD020008CD020008CD02000813
:10019000CD020008CD020008CD020008CD02000803
:0C01A000CD020008CD020008CD020008CE
:1001AC0010B5054C237833B9044B13B10448AFF3A5
:1001BC0000800123237010BD00000020000000000F
:1001CC001803000808B5034B1BB103490348AFF3F0
:1001DC00008008BD00000000040000201803000887
:1001EC0010B4214AD2F8303843F00203C2F8303848
:1001FC001E4BD3F8002442F48044C3F80044D3F8D7
:10020C00080440F48040C3F80804D3F8182442F4DE
:10021C000001C3F8181444F08054C3F8004440F0B3
:10022C008050C3F8080442F08142C3F8182442F00D
:10023C008002C3F8182441F0402141F08001C3F83A
:10024C001814002300E00133094A9342FBD3074AF8
:10025C00D2F8183443F40001C2F8181443F0814367
:10026C00C2F81834F3E700BF00300240000002402F
:10027C0080969800DFF830D00C480D490D4A0023C9
:10028C0002E0D458C4500433C4188C42F9D30A4A3F
:10029C000A4C002301E013600432A242FBD300F0AD
:1002AC0011F8FFF79DFF70470000032000000020AD
:1002BC000000002038030008000000201C00002073
:1002CC00FEE7000070B50D4D0D4C641BA41000260C
:1002DC00A64209D10B4D0C4C00F018F8641BA4106D
:1002EC000026A64205D170BD55F8043B984701364F
:1002FC00EEE755F8043B98470136F2E73003000867
:10030C00300300083003000834030008F8B500BFC0
:10031C00F8BC08BC9E467047F8B500BFF8BC08BCDA
:04032C009E46704732
:04033000D1010008EF
:04033400AD0100080F
:04000005080002816C
:00000001FF
