:020000040800F2
:1000000000000320F505000841060008410600082D
:1000100041060008410600084106000800000000F3
:100020000000000000000000000000004106000881
:100030004106000800000000410600082D050008E8
:100040004106000841060008410600084106000874
:100050004106000841060008410600084106000864
:100060004106000841060008410600084106000854
:100070004106000841060008410600084106000844
:100080004106000841060008410600084106000834
:100090004106000841060008410600084106000824
:1000A0004106000841060008410600084106000814
:1000B0004106000841060008410600084106000804
:1000C00041060008410600084106000841060008F4
:1000D00041060008410600084106000841060008E4
:1000E000AD05000841060008410600084106000869
:1000F00041060008410600084106000841060008C4
:1001000041060008410600084106000841060008B3
:1001100041060008410600084106000841060008A3
:100120004106000841060008410600084106000893
:100130004106000841060008410600084106000883
:100140004106000841060008410600084106000873
:100150004106000841060008410600084106000863
:100160004106000841060008410600084106000853
:100170004106000841060008410600080000000092
:100180004106000841060008410600084106000833
:100190004106000841060008410600084106000823
:0C01A00041060008410600084106000866
:1001AC0010B5054C237833B9044B13B10448AFF3A5
:1001BC0000800123237010BD04000020000000000B
:1001CC008C06000808B5034B1BB103490348AFF379
:1001DC00008008BD00000000080000208C0600080C
:1001EC0008B500F01FF900F0A1F800F045F900F097
:1001FC0077F936E0012B17D12F4B1B682F4A126869
:10020C009B1AB3F5FA6F0FD32D4A137883F00103C1
:10021C0013702C4B02221A7006E02A4B1B78012B10
:10022C003AD0284B00221A70254B1B78002B3FD15B
:10023C00214B1B68244A12689B1A244A1178244AC1
:10024C0052F8212093420CD31B4B1A681E4B1A6098
:10025C00204B1A78204B53F82210204A53694B40FC
:10026C0053611F4B1A69C2F340321E490A701A6956
:10027C00C2F380121C490A701B6913F0400FCCD0DA
:10028C00104B1B78002BB5D10E4B01221A700A4B68
:10029C001A680A4B1A60C7E70C490A78013203F155
:1002AC00553383FB020303EB4303D31A0B70B8E7FC
:1002BC0000F04AF9D5E700BF280000202C000020F0
:1002CC00000000202400002020000020300000202E
:1002DC00BC06000831000020A406000800040240FF
:1002EC0000080240260000202500002000B500F088
:1002FC000700C0F1070CBCF1040F28BF4FF0040C31
:10030C00031D062B0FD9C31E4FF0FF3E0EFA0CF047
:10031C0021EA000199400EFA03FE22EA0E0241EA9C
:10032C0002005DF804FB0023EEE700003B4A136873
:10033C0023F0F80343F08003136000239360374BE2
:10034C009B6813F00C0FFAD1344A136823F08073B6
:10035C001360324B1B6813F0007FFAD12F4A1368DD
:10036C0023F4102313602D4B1B6813F4003FFAD1B8
:10037C002A4B1A6822F480221A601A6842F48032DE
:10038C001A60264B1B6813F4003FFAD0234B1A68F3
:10039C0022F480221A601A6842F400221A600022A9
:1003AC005A605A6842F480025A605A6822F03F023E
:1003BC0042F004025A605A686FF38E1242F43452BF
:1003CC005A605A6822F440325A601A6842F08072BD
:1003DC001A60124B1B6813F0007FFAD10F4B9A680E
:1003EC0022F0030242F002029A609A6822F0F002B4
:1003FC009A609A6822F4E05242F4A0529A609A6889
:10040C0022F4604242F400429A60054A136823F0D9
:10041C000F0343F005031360704700BF0038024020
:10042C00003C02400F4A136B43F0060313630E4B60
:10043C001A680E490A431A605A6822F4814222F063
:10044C0047025A609A680A439A60D968084A0A4077
:10045C00DA60084AD36843F0006343F40053D36076
:10046C00704700BF003802400004024015500010D5
:10047C00EAAFFFEF0008024008B5154A536C43F48D
:10048C0080435364A2F58032536923F0F00343F0A8
:10049C00200353610F4B1A6842F401521A609A6898
:1004AC0042F401529A60DA6822F40152DA600A4B83
:1004BC00D86802221146C0F30220FFF717FF000193
:1004CC00C0B2064B83F828034FF480725A6008BD03
:1004DC0000380240003C014000ED00E000E100E08B
:1004EC004FF0E0231A6922F001021A611A6942F0F6
:1004FC0002021A611A6942F004021A615A6902F086
:10050C007F4206490A435A619A6902F07F420A43C4
:10051C009A611A6942F001021A6170471FBF02000A
:10052C00064A136801331360054A1388013313809C
:10053C00044A136801331360704700BF2800002081
:10054C003800002034000020124B134A9A61134BE0
:10055C001B78052B1CD8DFE803F003080C101418CB
:10056C000C4B4FF480429A6170470A4B80229A617F
:10057C007047084B01229A617047064B04229A611E
:10058C007047044B40229A617047024B02229A61D9
:10059C00704700BF000402400000C740310000203B
:1005AC0008B50D4A536943F4005353610B4B1B6858
:1005BC00C72B00D808BD0A490A780132094B83FBC6
:1005CC00020303EB43035800131A0B70FFF7BCFF35
:1005DC00024B00221A60EDE7003C01403400002081
:1005EC0031000020ABAAAA2ADFF830D00C480D4904
:1005FC000D4A002302E0D458C4500433C4188C4272
:10060C00F9D30A4A0A4C002301E013600432A242D7
:10061C00FBD300F011F8FFF7E3FD70470000032057
:10062C000000002004000020D00600080400002078
:10063C003C000020FEE7000070B50D4D0D4C641B16
:10064C00A4100026A64209D10B4D0C4C00F018F852
:10065C00641BA4100026A64205D170BD55F8043BBE
:10066C0098470136EEE755F8043B98470136F2E718
:10067C00C8060008C8060008C8060008CC06000812
:10068C00F8B500BFF8BC08BC9E467047F8B500BF73
:08069C00F8BC08BC9E46704743
:1006A4000040000080000000010000000400000081
:1006B400400000000200000088130000E204000073
:0406C400010300002E
:0406C800D101000854
:0406CC00AD01000874
:0406D0000100000025
:04000005080005F5F5
:00000001FF
