:020000040800F2
:1000000000000320DD090008290A0008290A000869
:10001000290A0008290A0008290A0008000000002F
:10002000000000000000000000000000290A000895
:10003000290A000800000000290A000899090008A0
:10004000290A0008290A0008290A0008290A0008C4
:10005000290A0008290A0008290A0008290A0008B4
:10006000290A0008290A0008290A0008290A0008A4
:10007000290A0008290A0008290A0008290A000894
:10008000290A0008290A0008290A0008290A000884
:10009000290A0008290A0008290A0008290A000874
:1000A000290A0008290A0008290A0008290A000864
:1000B000290A0008290A0008290A0008290A000854
:1000C000290A0008290A0008290A0008290A000844
:1000D000290A0008290A0008290A0008290A000834
:1000E00061090008290A0008290A0008290A0008ED
:1000F000290A0008290A0008290A0008290A000814
:10010000290A0008290A0008290A0008290A000803
:10011000290A0008290A0008290A0008290A0008F3
:10012000290A0008290A0008290A0008290A0008E3
:10013000290A0008290A0008290A0008290A0008D3
:10014000290A0008290A0008290A0008290A0008C3
:10015000290A0008290A0008290A0008290A0008B3
:10016000290A0008290A0008290A0008290A0008A3
:10017000290A0008290A0008290A000800000000CE
:10018000290A0008290A0008290A0008290A000883
:10019000290A0008290A0008290A0008290A000873
:0C01A000290A0008290A0008290A0008A2
:1001B00081F0004102E000BF83F0004330B54FEA18
:1001C00041044FEA430594EA050F08BF90EA020F85
:1001D0001FBF54EA000C55EA020C7FEA645C7FEA18
:1001E000655C00F0E2804FEA5454D4EB5555B8BF3B
:1001F0006D420CDD2C4480EA020281EA030382EAAC
:10020000000083EA010180EA020281EA0303362D3D
:1002100088BF30BD11F0004F4FEA01314FF4801C10
:100220004CEA113102D0404261EB410113F0004F22
:100230004FEA03334CEA133302D0524263EB4303D9
:1002400094EA050F00F0A780A4F10104D5F1200E77
:100250000DDB02FA0EFC22FA05F2801841F10001D2
:1002600003FA0EF2801843FA05F359410EE0A5F1A6
:1002700020050EF1200E012A03FA0EFC28BF4CF0D7
:10028000020C43FA05F3C01851EBE37101F000458D
:1002900007D54FF0000EDCF1000C7EEB00006EEB9A
:1002A0000101B1F5801F1BD3B1F5001F0CD3490824
:1002B0005FEA30004FEA3C0C04F101044FEA44527B
:1002C00012F5800F80F09A80BCF1004F08BF5FEA02
:1002D000500C50F1000041EB045141EA050130BDE2
:1002E0005FEA4C0C404141EB0101013C28BFB1F5F4
:1002F000801FE9D291F0000F04BF01460020B1FA3F
:1003000081F308BF2033A3F10B03B3F120020CDA11
:100310000C3208DD02F1140CC2F10C0201FA0CF0EF
:1003200021FA02F10CE002F11402D8BFC2F1200C54
:1003300001FA02F120FA0CFCDCBF41EA0C0190400A
:10034000E41AA2BF01EB0451294330BD6FEA040453
:100350001F3C1CDA0C340EDC04F11404C4F120023E
:1003600020FA04F001FA02F340EA030021FA04F350
:1003700045EA030130BDC4F10C04C4F1200220FAA7
:1003800002F001FA04F340EA0300294630BD21FAE5
:1003900004F0294630BD94F0000F83F4801306BFAB
:1003A00081F480110134013D4EE77FEA645C18BF9F
:1003B0007FEA655C29D094EA050F08BF90EA020F36
:1003C00005D054EA000C04BF1946104630BD91EA2E
:1003D000030F1EBF0021002030BD5FEA545C05D131
:1003E0004000494128BF41F0004130BD14F5800470
:1003F0003CBF01F5801130BD01F0004545F0FE41E4
:1004000041F470014FF0000030BD7FEA645C1ABF18
:10041000194610467FEA655C1CBF0B46024650EA4F
:10042000013406BF52EA033591EA030F41F400217B
:1004300030BD00BF90F0000F04BF0021704730B501
:100440004FF4806404F132044FF000054FF00001D6
:1004500050E700BF90F0000F04BF0021704730B597
:100460004FF4806404F1320410F0004548BF40426C
:100470004FF000013EE700BF42004FEAE2014FEAC1
:1004800031014FEA02701FBF12F07F4393F07F4F9C
:1004900081F06051704732F07F4208BF704793F09F
:1004A0007F4F04BF41F40021704730B54FF46074B2
:1004B00001F0004521F000411CE700BF50EA0102B5
:1004C00008BF704730B54FF000050AE050EA01025E
:1004D00008BF704730B511F0004502D5404261EBCE
:1004E00041014FF4806404F132045FEA915C3FF40F
:1004F000D8AE4FF003025FEADC0C18BF03325FEAAC
:10050000DC0C18BF033202EBDC02C2F1200300FA5C
:1005100003FC20FA02F001FA03FE40EA0E0021FA81
:1005200002F11444BDE600BF4FEA4102B2F1E043DC
:1005300024BFB3F5001CDCF1FE5C0DD901F0004CCA
:100540004FEAC0024CEA5070B2F1004F40EB83001A
:1005500008BF20F00100704711F0804F21D113F146
:100560003872BCBF01F00040704741F480114FEA7F
:100570005252C2F11802C2F1200C10FA0CF320FA08
:1005800002F018BF40F001004FEAC1234FEAD32325
:1005900003FA0CFC40EA0C0023FA02F34FEA43038F
:1005A000CCE77FEA625307D150EA01331EBF4FF018
:1005B000FE4040F44000704701F0004040F0FE4033
:1005C00040F40000704700BF10B5054C237833B9E4
:1005D000044B13B10448AFF300800123237010BD16
:1005E0000000002000000000740A000808B5034B5A
:1005F0001BB103490348AFF3008008BD00000000B1
:1006000004000020740A000808B500F05FF800F04C
:1006100089F800F0C1F800F043F900F081F94FF0DB
:10062000E0239969144A11601969144A11605A69E2
:10063000134B1A60134C2068FFF71EFF0CA3D3E97D
:100640000023FFF7BBFDFFF76FFF20600E4CA3698F
:1006500043F08003A361C82000F0B2F9A36943F41A
:100660000003A361C82000F0ABF9D8E7AFF3008026
:10067000FCA9F1D24D62503F240000202000002050
:100680001C0000202C0000200004024000B500F0F7
:100690000700C0F1070CBCF1040F28BF4FF0040C99
:1006A000031D062B0FD9C31E4FF0FF3E0EFA0CF0B0
:1006B00021EA000199400EFA03FE22EA0E0241EA05
:1006C00002005DF804FB0023EEE70000134AD2F8B5
:1006D000303843F00603C2F83038114BD3F8000429
:1006E00040F08050C3F80004D3F8081441F0805162
:1006F000C3F80814D3F8182442F08042C3F8182431
:1007000040F00100C3F8000441F00101C3F80814EF
:1007100042F48032C3F81824704700BF0030024012
:10072000000002401B4B1A6842F480421A605A686B
:1007300022F080025A609A6842F480429A60DA6835
:1007400022F48042DA609A6942F400029A611A68DF
:1007500042F480321A605A6822F480725A609A68B1
:1007600042F480329A60DA6822F48032DA609A6960
:1007700042F080729A6103F580631A6842F40022A5
:100780001A609A6842F440229A605A6A22F0F00293
:100790005A627047000402403F4A136823F0F8038E
:1007A00043F080031360002393603B4B9B6813F07E
:1007B0000C0FFAD1384A136823F080731360364B5C
:1007C0001B6813F0007FFAD1334A136823F4102317
:1007D0001360314B1B6813F4003FFAD12E4B1A689B
:1007E00022F480221A601A6842F480321A602A4B7E
:1007F0001B6813F4003FFAD0274B1A6822F48022BA
:100800001A601A6842F400221A6000225A605A687C
:1008100042F480025A605A6822F03F0242F0040219
:100820005A605A686FF38E1242F434525A605A6812
:1008300042F480325A601A6842F080721A60164B95
:100840001B6813F0007FFAD1134B9A6822F0030261
:1008500042F002029A609A6822F0F0029A609A6866
:1008600022F4E05242F4A0529A609A6822F4604264
:1008700042F400429A609A6842F060529A609A6824
:1008800022F040429A60054A136823F00F0343F0B8
:1008900005031360704700BF00380240003C02406F
:1008A00008B51A4A536C43F480435364184AD3681A
:1008B00023F4E0631B041B0C43F0BF6343F40033D9
:1008C000D36014494B6923F0F00343F020034B61DC
:1008D000114B196841F400511960996841F40051B5
:1008E0009960D96841F40051D960D0680022022192
:1008F000C0F30220FFF7CAFE0001C0B2074B83F825
:1009000028034FF480725A6008BD00BF00380240CF
:1009100000ED00E000380140003C014000E100E053
:100920004FF0E0231A6922F001021A611A6942F0BD
:1009300002021A611A6942F004021A615A6902F04D
:100940007F4206490A435A619A6902F07F420A438C
:100950009A611A6942F001021A6170471FBF0200D2
:100960000A4A13780133DBB21370012B08D9084A05
:100970001378B3FA83F35B091370044B00221A70E7
:10098000044A536943F40053536170473600002012
:1009900028000020003C0140064A138801331380E0
:1009A000054A138801331380044A138801331380E6
:1009B000704700BF340000203200002030000020CB
:1009C000054B1B88834202D3034B00221A80024B43
:1009D0001B888342FBD3704730000020DFF830D003
:1009E0000C480D490D4A002302E0D458C45004338A
:1009F000C4188C42F9D30A4A0A4C002301E0136060
:100A00000432A242FBD300F011F8FFF7FDFD70475E
:100A1000000003200000002000000020940A0008CD
:100A20000000002038000020FEE7000070B50D4DEA
:100A30000D4C641BA4100026A64209D10B4D0C4C92
:100A400000F018F8641BA4100026A64205D170BD62
:100A500055F8043B98470136EEE755F8043B9847B4
:100A60000136F2E78C0A00088C0A00088C0A00089C
:100A7000900A0008F8B500BFF8BC08BC9E46704755
:0C0A8000F8B500BFF8BC08BC9E467047EB
:040A8C00ED0500086C
:040A9000C90500088C
:04000005080009DD09
:00000001FF
