:020000040800F2
:1000000000000320AD040008F9040008F90400080A
:10001000F9040008F9040008F904000800000000D1
:10002000000000000000000000000000F9040008CB
:10003000F904000800000000F9040008F9040008B1
:10004000F9040008F9040008F9040008F90400089C
:10005000F9040008F9040008F9040008F90400088C
:10006000F9040008F9040008F9040008F90400087C
:10007000F9040008F9040008F9040008F90400086C
:10008000F9040008F9040008F9040008F90400085C
:10009000F9040008F9040008F9040008F90400084C
:1000A000F9040008F9040008F9040008F90400083C
:1000B000F9040008F9040008F9040008F90400082C
:1000C000F9040008F9040008F9040008F90400081C
:1000D000F9040008F9040008F9040008F90400080C
:1000E000F9040008F9040008F9040008F9040008FC
:1000F000F9040008F9040008F9040008F9040008EC
:10010000F9040008F9040008F9040008F9040008DB
:10011000F9040008F9040008F9040008F9040008CB
:10012000F9040008F9040008F9040008F9040008BB
:10013000F9040008F9040008F9040008F9040008AB
:10014000F9040008F9040008F9040008F90400089B
:10015000F9040008F9040008F9040008F90400088B
:10016000F9040008F9040008F9040008F90400087B
:10017000F9040008F9040008F90400080000000070
:10018000F9040008F9040008F9040008F90400085B
:10019000F9040008F9040008F9040008F90400084B
:0C01A000F9040008F9040008F904000844
:1001AC0010B5054C237833B9044B13B10448AFF3A5
:1001BC0000800123237010BD00000020000000000F
:1001CC004405000808B5034B1BB103490348AFF3C2
:1001DC00008008BD00000000040000204405000859
:1001EC000A4B1A6842F040021A605A6822F0080260
:1001FC005A609A6842F040029A60DA6822F0400233
:10020C00DA609A6942F008029A6170470000024075
:10021C000A4B1A6842F001021A605A6822F0010275
:10022C005A609A6842F001029A60DA6822F0010280
:10023C00DA609A6942F001029A6170470008024044
:10024C000A4B1A6842F040021A605A6822F00802FF
:10025C005A609A6842F040029A60DA6822F04002D2
:10026C00DA609A6942F008029A617047000802400D
:10027C00044B9A6942F400229A611A6822F04002F7
:10028C001A60704700000240054A936943F400234A
:10029C00936102F50062136823F001031360704749
:1002AC0000000240044B9A6942F400229A611A68D9
:1002BC0022F040021A60704700080240044B1A6B8F
:1002CC0042F00E021A631A6B42F001021A63704775
:1002DC00003802401B4B1A6842F480421A605A687C
:1002EC0022F080025A609A6842F480429A60DA687E
:1002FC0022F48042DA601A6842F080521A605A681E
:10030C0022F480425A609A6842F080529A60DA680D
:10031C0022F08052DA601A6842F001021A605A68C0
:10032C0022F001025A609A6842F001029A60DA687F
:10033C0022F00102DA60044A136823F08063136030
:10034C00704700BF000402400008024010B5FFF7E0
:10035C00B5FFFFF7BFFFFFF78BFFFFF795FFFFF729
:10036C00A1FF58E0464A13780133D9B2117000232B
:10037C0000E00133434A9342FBDD434B1B6913F40A
:10038C00005FFAD14B1E032B4AD8DFE803F00208BA
:10039C000E143E4B01221A70FFF722FF40E03C4B3B
:1003AC0001221A70FFF734FF3AE03A4B01221A701F
:1003BC00FFF746FF34E00024344B1C70344B1C70A8
:1003CC00344B1C70FFF754FFFFF75EFFFFF76AFF1B
:1003DC002B4B1C7024E0304B1B6913F0080F2CD1F5
:1003EC002E4A936943F48033936126E0264B1B69B4
:1003FC0013F0010F31D1294A936943F4000393613F
:10040C002BE0214B1B6913F0080F04D1234A93698D
:10041C0043F0804393611C4B1B6913F4005FA1D123
:10042C001A4B1B784BB91C4B1B6913F0080FD2D01D
:10043C001A4A936943F001039361154B1B7863B916
:10044C0003F1804303F502331B6913F0010FCDD088
:10045C00124A936943F0800393610E4B1B78002B77
:10046C00D9D103F1804303F502331B6913F0080F54
:10047C00C7D00A4A936943F480439361CBE700BF2A
:10048C001F0000203F420F00000802401E00002009
:10049C001D0000201C00002000000240000402404F
:1004AC00DFF830D00C480D490D4A002302E0D45837
:1004BC00C4500433C4188C42F9D30A4A0A4C0023A2
:1004CC0001E013600432A242FBD300F011F8FFF7F5
:1004DC003DFF7047000003200000002000000020BA
:1004EC00640500080000002020000020FEE700004A
:1004FC0070B50D4D0D4C641BA4100026A64209D1FD
:10050C000B4D0C4C00F018F8641BA4100026A642EE
:10051C0005D170BD55F8043B98470136EEE755F808
:10052C00043B98470136F2E75C0500085C050008BF
:10053C005C05000860050008F8B500BFF8BC08BCF5
:10054C009E467047F8B500BFF8BC08BC9E46704785
:04055C00D1010008C1
:04056000AD010008E1
:04000005080004AD3E
:00000001FF
