:020000040800F2
:1000000000000320010500084D0500084D0500080B
:100010004D0500084D0500084D05000800000000D2
:100020000000000000000000000000004D05000876
:100030004D050008000000004D0500084D050008B2
:100040004D0500084D0500084D0500084D05000848
:100050004D0500084D0500084D0500084D05000838
:100060004D0500084D0500084D0500084D05000828
:100070004D0500084D0500084D0500084D05000818
:100080004D0500084D0500084D0500084D05000808
:100090004D0500084D0500084D0500084D050008F8
:1000A0004D0500084D0500084D0500084D050008E8
:1000B0004D0500084D0500084D0500084D050008D8
:1000C0004D0500084D0500084D0500084D050008C8
:1000D0004D0500084D0500084D0500084D050008B8
:1000E0004D0500084D0500084D0500084D050008A8
:1000F0004D0500084D0500084D0500084D05000898
:100100004D0500084D0500084D0500084D05000887
:100110004D0500084D0500084D0500084D05000877
:100120004D0500084D0500084D0500084D05000867
:100130004D0500084D0500084D0500084D05000857
:100140004D0500084D0500084D0500084D05000847
:100150004D0500084D0500084D0500084D05000837
:100160004D0500084D0500084D0500084D05000827
:100170004D0500084D0500084D0500080000000071
:100180004D0500084D0500084D0500084D05000807
:100190004D0500084D0500084D0500084D050008F7
:0C01A0004D0500084D0500084D05000845
:1001AC0010B5054C237833B9044B13B10448AFF3A5
:1001BC0000800123237010BD04000020000000000B
:1001CC009805000808B5034B1BB103490348AFF36E
:1001DC00008008BD00000000080000209805000801
:1001EC0010B4404A936943F03043936102F50062C6
:1001FC00936943F4601393613B4B1C6874B9A2F58B
:10020C000062936943F03043936102F50062936995
:10021C0043F4601393615DF8044B7047062C01D0D6
:10022C00002221E0314B1B785BB12E4A936943F4D9
:10023C003043936102F50062936943F03803936194
:10024C00E9E7284A936943F03043936102F5006271
:10025C00936943F460139361DDE725498B6943F09F
:10026C0008038B610132D2B29442D4DD214B197850
:10027C001144214B83FB0103A3EBE17303EB430319
:10028C0058000B1ADBB2052BECD801A151F823F066
:10029C0067020008B5020008C1020008CD02000880
:1002AC00D9020008E502000811498B6943F01003DC
:1002BC008B61D7E70E498B6943F020038B61D1E743
:1002CC0008498B6943F480538B61CBE705498B69F3
:1002DC0043F400538B61C5E702498B6943F4004337
:1002EC008B61BFE7000402403C00002000000020AE
:1002FC00000C024020000020ABAAAA2A08B500F08E
:10030C008BF812E0374A1378B3FA83F35B09137056
:10031C00FFF766FF344B1A68344B1A60344B0022DB
:10032C001A60344B1B68002B42D1334A1368591C9A
:10033C001160324A82FB0312DB17C3EBA2132A4A69
:10034C0013602F4A126912F4807F05D028490A687D
:10035C00B2FA82F252090A60294A126912F4007F39
:10036C0005D024490A68B2FA82F252090A60204A7E
:10037C001268002AD5D01D4A12689B1A0A2BCDDDB3
:10038C00204A1368B3FA83F35B0913601E4B1B6896
:10039C00062BB7D01D490A7801321D4B83FB020393
:1003AC0003EB43035800131A0B70FFF719FFB1E767
:1003BC000D4B1B68174A12689B1A322B0EDD124A22
:1003CC00136801331360062B02DD134600221A60FA
:1003DC00FFF706FF044B1A680E4B1A60054B002200
:1003EC001A60A2E700000020280000203000002046
:1003FC00380000203400002024000020F11976057C
:10040C0000040240400000203C000020200000209E
:10041C00ABAAAA2A2C000020344A136B43F00E031B
:10042C001363334B1A6842F080621A605A6822F4E4
:10043C0000525A609A6842F080629A60DA6822F040
:10044C008062DA601A6842F080721A605A6822F48C
:10045C0080525A609A6842F080729A60DA6822F090
:10046C008072DA601A6842F080421A605A6822F48C
:10047C0000425A609A6842F080429A60DA6822F030
:10048C008042DA6003F500631A6842F040021A6099
:10049C005A6822F008025A609A6842F040029A6048
:1004AC00DA6822F04002DA601A6842F480721A604C
:1004BC005A6822F010025A609A6842F480729A606C
:1004CC00DA6822F48072DA601A6842F480621A6088
:1004DC005A6822F020025A609A6842F480629A604C
:1004EC00DA6822F48062DA60704700BF003802409C
:1004FC0000040240DFF830D00C480D490D4A0023AF
:10050C0002E0D458C4500433C4188C42F9D30A4ABC
:10051C000A4C002301E013600432A242FBD300F02A
:10052C0011F8FFF7EBFE70470000032000000020DD
:10053C0004000020B805000804000020440000203E
:10054C00FEE7000070B50D4D0D4C641BA410002689
:10055C00A64209D10B4D0C4C00F018F8641BA410EA
:10056C000026A64205D170BD55F8043B98470136CC
:10057C00EEE755F8043B98470136F2E7B005000862
:10058C00B0050008B0050008B4050008F8B500BFB8
:10059C00F8BC08BC9E467047F8B500BFF8BC08BC58
:0405AC009E467047B0
:0405B000D10100086D
:0405B400AD0100088D
:0405B800010000003E
:0400000508000501E9
:00000001FF
