:020000040800F2
:100000000000032095040008E1040008E104000852
:10001000E1040008E1040008E10400080000000019
:10002000000000000000000000000000E1040008E3
:10003000E104000800000000E1040008E1040008F9
:10004000E1040008E1040008E1040008E1040008FC
:10005000E1040008E1040008E1040008E1040008EC
:10006000E1040008E1040008E1040008E1040008DC
:10007000E1040008E1040008E1040008E1040008CC
:10008000E1040008E1040008E1040008E1040008BC
:10009000E1040008E1040008E1040008E1040008AC
:1000A000E1040008E1040008E1040008E10400089C
:1000B000E1040008E1040008E1040008E10400088C
:1000C000E1040008E1040008E1040008E10400087C
:1000D000E1040008E1040008E1040008E10400086C
:1000E000E1040008E1040008E1040008E10400085C
:1000F000E1040008E1040008E1040008E10400084C
:10010000E1040008E1040008E1040008E10400083B
:10011000E1040008E1040008E1040008E10400082B
:10012000E1040008E1040008E1040008E10400081B
:10013000E1040008E1040008E1040008E10400080B
:10014000E1040008E1040008E1040008E1040008FB
:10015000E1040008E1040008E1040008E1040008EB
:10016000E1040008E1040008E1040008E1040008DB
:10017000E1040008E1040008E104000800000000B8
:10018000E1040008E1040008E1040008E1040008BB
:10019000E1040008E1040008E1040008E1040008AB
:0C01A000E1040008E1040008E10400088C
:1001AC000348044B834202D0034B03B118477047FA
:1001BC000400002004000020000000000548064B4D
:1001CC001B1AD90F01EBA301491002D0034B03B149
:1001DC0018477047040000200400002000000000B5
:1001EC0010B5064C237843B9FFF7DAFF044B13B173
:1001FC000448AFF300800123237010BD04000020DD
:10020C00000000002C05000808B5054B1BB1054982
:10021C000548AFF30080BDE80840FFF7CFBF00BF33
:10022C0000000000080000202C050008274A136B72
:10023C0043F006031363264B1A6842F001021A605E
:10024C001A6842F480421A601A6842F080521A60AE
:10025C00204A116841F480311160596821F0010184
:10026C005960596821F080015960596821F4804126
:10027C005960516821F480715160996841F0010115
:10028C009960996841F480419960996841F0805176
:10029C009960916841F480319160D96821F0010135
:1002AC00D960D96821F48041D960D96821F0805196
:1002BC00D960D36823F48033D360136823F0406390
:1002CC001360D36843F00063D3607047003802407A
:1002DC0000040240000802400022824210D282B088
:1002EC0009E0019B01330193019BB3F5FA6FF8D33D
:1002FC000132824202D200230193F5E702B070472B
:10030C007047000008B5FFF791FF564B1B69C3F30C
:10031C004033554A1370554A1278012A3ED0534A3D
:10032C0013700A20FFF7D8FF514B1B78DBB2012B5F
:10033C0043D04F4B1B78DBB2022B5BD04C4B1B7862
:10034C00DBB2032B5FD04A4B1B78DBB2042B63D0A0
:10035C00474B1B78DBB2052B67D0454B1B78DBB2C8
:10036C00062BD2D1434B9A6942F001029A619A69E9
:10037C0042F080029A619A6942F480429A61394A49
:10038C00936943F48073936101233B4A13703B4A96
:10039C0013703B4A13703B4A1370B6E7002BBED167
:1003AC0033490A780132D2B20A700A78D2B2072ADB
:1003BC00B5D10A4601211170B1E72E4B9A6942F072
:1003CC0001029A619A6942F400029A619A6942F0B8
:1003DC0080429A61234A936943F080739361264B60
:1003EC0001221A700023254A1370254A1370254ADE
:1003FC0013709EE71F4A936943F0800393611F4B70
:10040C0001221A709AE71B4A936943F48043936163
:10041C001B4B01221A7096E7124A936943F48073BE
:10042C009361184B01221A7092E7124B9A6942F4AD
:10043C0080329A619A6942F400029A619A6942F098
:10044C0080429A61074A936943F080739361002359
:10045C00094A1370094A1370094A1370094A137038
:10046C007BE700BF000802400000002025000020B0
:10047C002400002000040240230000202200002061
:10048C002100002020000020DFF830D00C480D495E
:10049C000D4A002302E0D458C4500433C4188C42D3
:1004AC00F9D30A4A0A4C002301E013600432A24239
:1004BC00FBD300F011F8FFF725FF70470000032075
:1004CC0000000020040000204C050008040000205F
:1004DC0028000020FEE7000070B50D4D0D4C641B8C
:1004EC00A4100026A64209D10B4D0C4C00F018F8B4
:1004FC00641BA4100026A64205D170BD55F8043B20
:10050C0098470136EEE755F8043B98470136F2E779
:10051C004405000844050008440500084805000887
:10052C00F8B500BFF8BC08BC9E467047F8B500BFD4
:08053C00F8BC08BC9E467047A4
:040544001502000894
:04054800ED010008B9
:04054C0001000000AA
:040000050800049556
:00000001FF
