:020000040800F2
:10000000000003204D04000899040008990400082A
:1000100099040008990400089904000800000000F1
:10002000000000000000000000000000990400082B
:1000300099040008000000009904000899040008D1
:10004000990400089904000899040008990400081C
:10005000990400089904000899040008990400080C
:1000600099040008990400089904000899040008FC
:1000700099040008990400089904000899040008EC
:1000800099040008990400089904000899040008DC
:1000900099040008990400089904000899040008CC
:1000A00099040008990400089904000899040008BC
:1000B00099040008990400089904000899040008AC
:1000C000990400089904000899040008990400089C
:1000D000990400089904000899040008990400088C
:1000E000990400089904000899040008990400087C
:1000F000990400089904000899040008990400086C
:10010000990400089904000899040008990400085B
:10011000990400089904000899040008990400084B
:10012000990400089904000899040008990400083B
:10013000990400089904000899040008990400082B
:10014000990400089904000899040008990400081B
:10015000990400089904000899040008990400080B
:1001600099040008990400089904000899040008FB
:100170009904000899040008990400080000000090
:1001800099040008990400089904000899040008DB
:1001900099040008990400089904000899040008CB
:0C01A00099040008990400089904000864
:1001AC000348044B834202D0034B03B118477047FA
:1001BC000000002000000020000000000548064B55
:1001CC001B1AD90F01EBA301491002D0034B03B149
:1001DC0018477047000000200000002000000000BD
:1001EC0010B5064C237843B9FFF7DAFF044B13B173
:1001FC000448AFF300800123237010BD00000020E1
:10020C0000000000E404000808B5054B1BB10549CB
:10021C000548AFF30080BDE80840FFF7CFBF00BF33
:10022C000000000004000020E4040008144B154AF0
:10023C009A614FF0E0629A61034648B102F1645250
:10024C0002F5013201219161884217D98021916117
:10025C00022B13D90A4A4FF480419161032B0DD91B
:10026C004FF480719161042B08D94FF400719161A6
:10027C00052B03D913464FF480629A61704700BF77
:10028C00000402400000814082B00023019303E08F
:10029C0000BF019B01330193019A024B9A42F7DD97
:1002AC0002B070479F86010008B55F4A136B43F09C
:1002BC00060313635D4B1A6842F001021A601A6858
:1002CC0042F480421A601A6842F080521A601A682E
:1002DC0042F480321A601A6842F480221A601A685A
:1002EC0042F480121A605A6822F001025A605A686D
:1002FC0022F080025A605A6822F480425A605A688E
:10030C0022F480725A605A6822F400725A605A6859
:10031C0022F480625A609A6842F001029A609A68EC
:10032C0042F480429A609A6842F080529A609A68CD
:10033C0042F480329A609A6842F480229A609A68F9
:10034C0042F480129A60DA6822F00102DA60DA680C
:10035C0022F48042DA60DA6822F08052DA60DA68DD
:10036C0022F48032DA60DA6822F48022DA60DA6809
:10037C0022F48012DA6003F580631A6822F040627E
:10038C001A60DA6842F00062DA6009E0284B1B69F7
:10039C0013F4005FFAD1264B1B6913F0400F18D1F0
:1003AC00234B1B6913F4005FF5D0FFF76DFF204B57
:1003BC001B6913F4005FEED01E4A13780133DBB2D5
:1003CC0013701378DBB2062BE0D9134600221A7097
:1003DC00DCE7FFF759FF164B1B6913F0400FDFD01A
:1003EC00144B1978144A13780B44DBB2137013783E
:1003FC00DBB2062B13D900230E4A13700E4A13706E
:10040C0003F1804303F501330C4A9A614FF0E0622B
:10041C009A61074B1B6913F0400FFAD1C0E7064BEA
:10042C001878FFF703FFF4E700380240000402409D
:10043C00000802401D0000201C000020000081402C
:10044C00DFF830D00C480D490D4A002302E0D45897
:10045C00C4500433C4188C42F9D30A4A0A4C002302
:10046C0001E013600432A242FBD300F011F8FFF755
:10047C001BFF70470000032000000020000000203C
:10048C00040500080000002020000020FEE700000A
:10049C0070B50D4D0D4C641BA4100026A64209D15D
:1004AC000B4D0C4C00F018F8641BA4100026A6424F
:1004BC0005D170BD55F8043B98470136EEE755F869
:1004CC00043B98470136F2E7FC040008FC040008E2
:1004DC00FC04000800050008F8B500BFF8BC08BC17
:1004EC009E467047F8B500BFF8BC08BC9E467047E6
:0404FC0015020008DD
:04050000ED01000801
:040000050800044D9E
:00000001FF
