:020000040800F2
:1000000000000320F5030008410400084104000833
:1000100041040008410400084104000800000000F9
:100020000000000000000000000000004104000883
:1000300041040008000000004104000841040008D9
:10004000410400084104000841040008410400087C
:10005000410400084104000841040008410400086C
:10006000410400084104000841040008410400085C
:10007000410400084104000841040008410400084C
:10008000410400084104000841040008410400083C
:10009000410400084104000841040008410400082C
:1000A000410400084104000841040008410400081C
:1000B000410400084104000841040008410400080C
:1000C00041040008410400084104000841040008FC
:1000D00041040008410400084104000841040008EC
:1000E00041040008410400084104000841040008DC
:1000F00041040008410400084104000841040008CC
:1001000041040008410400084104000841040008BB
:1001100041040008410400084104000841040008AB
:10012000410400084104000841040008410400089B
:10013000410400084104000841040008410400088B
:10014000410400084104000841040008410400087B
:10015000410400084104000841040008410400086B
:10016000410400084104000841040008410400085B
:100170004104000841040008410400080000000098
:10018000410400084104000841040008410400083B
:10019000410400084104000841040008410400082B
:0C01A0004104000841040008410400086C
:1001AC0010B5054C237833B9044B13B10448AFF3A5
:1001BC0000800123237010BD00000020000000000F
:1001CC008C04000808B5034B1BB103490348AFF37B
:1001DC00008008BD00000000040000208C04000812
:1001EC0008B500F0BFF829E055490A6801320A60E9
:1001FC0032E00023534A1370534A1370504A136071
:10020C00504B1B78012B0BD04F4A13704F4B1B6874
:10021C00013B052B78D8DFE803F00C353B414962F4
:10022C00494A1278002AEFD148490A6801320A601B
:10023C00EAE7474A936943F400539361454B1B69C2
:10024C0003F40053444A136013B13E4A0121117068
:10025C003C4A1278012AC7D0394A11683F4A914268
:10026C00CEDD002BC5D0384B1B78002BC8D1374ABC
:10027C00136801331360344B01221A70304B002287
:10028C001A60BDE7324A936943F400439361D5E7A2
:10029C002F4A936943F480539361CFE7304AD2F8E5
:1002AC00183443F04003C2F81834C7E7284B9A6956
:1002BC0042F000529A619A6942F000429A619A693E
:1002CC0042F080529A619A6942F480029A61244AFF
:1002DC00D2F8183443F40003C2F81834AEE71C4BC0
:1002EC009A6942F400529A619A6942F400429A6106
:1002FC009A6942F480529A61194AD2F8183443F040
:10030C004003C2F8183499E7104B00221A60104BC6
:10031C009A6942F000529A619A6942F000429A61DD
:10032C009A6942F080529A619A6942F480029A6109
:10033C000B4AD2F8183443F40003C2F818347DE7A2
:10034C00200000202900002028000020240000208C
:10035C0000040240000802401C0000209F8601009F
:10036C00000002401E4A136B43F00E0313631D4B37
:10037C00D3F8001441F48051C3F80014D3F80824C6
:10038C0042F48062C3F8082441F08061C3F8001481
:10039C0042F08072C3F8082403F580631A6842F0B7
:1003AC0080721A605A6822F480525A609A6842F03D
:1003BC0080729A60DA6822F08072DA601A6842F011
:1003CC0080421A605A6822F400425A609A6842F0DD
:1003DC0080429A60DA6822F08042DA60704700BF8F
:1003EC000038024000000240DFF830D00C480D49C4
:1003FC000D4A002302E0D458C4500433C4188C4274
:10040C00F9D30A4A0A4C002301E013600432A242D9
:10041C00FBD300F011F8FFF7E3FE70470000032058
:10042C000000002000000020AC04000800000020A8
:10043C002C000020FEE7000070B50D4D0D4C641B28
:10044C00A4100026A64209D10B4D0C4C00F018F854
:10045C00641BA4100026A64205D170BD55F8043BC0
:10046C0098470136EEE755F8043B98470136F2E71A
:10047C00A4040008A4040008A4040008A8040008AC
:10048C00F8B500BFF8BC08BC9E467047F8B500BF75
:08049C00F8BC08BC9E46704745
:0404A400D10100087A
:0404A800AD0100089A
:04000005080003F5F7
:00000001FF
